{
  "contractName": "SmartContract",
  "abi": [
    {
      "constant": true,
      "inputs": [],
      "name": "sellerAddress",
      "outputs": [
        {
          "name": "",
          "type": "address"
        }
      ],
      "payable": false,
      "stateMutability": "view",
      "type": "function"
    },
    {
      "constant": true,
      "inputs": [],
      "name": "buyerAddress",
      "outputs": [
        {
          "name": "",
          "type": "address"
        }
      ],
      "payable": false,
      "stateMutability": "view",
      "type": "function"
    },
    {
      "constant": true,
      "inputs": [],
      "name": "getSellerAddress",
      "outputs": [
        {
          "name": "",
          "type": "address"
        }
      ],
      "payable": false,
      "stateMutability": "view",
      "type": "function"
    },
    {
      "constant": true,
      "inputs": [],
      "name": "owner",
      "outputs": [
        {
          "name": "",
          "type": "address"
        }
      ],
      "payable": false,
      "stateMutability": "view",
      "type": "function"
    },
    {
      "constant": true,
      "inputs": [],
      "name": "getComment",
      "outputs": [
        {
          "name": "",
          "type": "string"
        }
      ],
      "payable": false,
      "stateMutability": "view",
      "type": "function"
    },
    {
      "constant": true,
      "inputs": [],
      "name": "comment",
      "outputs": [
        {
          "name": "",
          "type": "string"
        }
      ],
      "payable": false,
      "stateMutability": "view",
      "type": "function"
    },
    {
      "constant": true,
      "inputs": [],
      "name": "getBuyerAddress",
      "outputs": [
        {
          "name": "",
          "type": "address"
        }
      ],
      "payable": false,
      "stateMutability": "view",
      "type": "function"
    },
    {
      "inputs": [
        {
          "name": "_sellerAddress",
          "type": "string"
        },
        {
          "name": "_buyerAddress",
          "type": "string"
        },
        {
          "name": "_comment",
          "type": "string"
        }
      ],
      "payable": false,
      "stateMutability": "nonpayable",
      "type": "constructor"
    }
  ],
  "bytecode": "0x606060405234156200001057600080fd5b60405162000e2f38038062000e2f83398101604052808051820191906020018051820191906020018051820191905050336000806101000a81548173ffffffffffffffffffffffffffffffffffffffff021916908373ffffffffffffffffffffffffffffffffffffffff1602179055506200009f8362000160640100000000026200056c176401000000009004565b600160006101000a81548173ffffffffffffffffffffffffffffffffffffffff021916908373ffffffffffffffffffffffffffffffffffffffff160217905550620000fe8262000160640100000000026200056c176401000000009004565b600260006101000a81548173ffffffffffffffffffffffffffffffffffffffff021916908373ffffffffffffffffffffffffffffffffffffffff16021790555080600390805190602001906200015692919062000493565b5050505062000556565b60006200016c6200051a565b60008060008086945060009350600290505b602a81101562000486576101008402935084818151811015156200019e57fe5b9060200101517f010000000000000000000000000000000000000000000000000000000000000090047f0100000000000000000000000000000000000000000000000000000000000000027f01000000000000000000000000000000000000000000000000000000000000009004925084600182018151811015156200022057fe5b9060200101517f010000000000000000000000000000000000000000000000000000000000000090047f0100000000000000000000000000000000000000000000000000000000000000027f01000000000000000000000000000000000000000000000000000000000000009004915060618373ffffffffffffffffffffffffffffffffffffffff1610158015620002cf575060668373ffffffffffffffffffffffffffffffffffffffff1611155b15620002e15760578303925062000380565b60418373ffffffffffffffffffffffffffffffffffffffff161015801562000320575060468373ffffffffffffffffffffffffffffffffffffffff1611155b1562000332576037830392506200037f565b60308373ffffffffffffffffffffffffffffffffffffffff161015801562000371575060398373ffffffffffffffffffffffffffffffffffffffff1611155b156200037e576030830392505b5b5b60618273ffffffffffffffffffffffffffffffffffffffff1610158015620003bf575060668273ffffffffffffffffffffffffffffffffffffffff1611155b15620003d15760578203915062000470565b60418273ffffffffffffffffffffffffffffffffffffffff161015801562000410575060468273ffffffffffffffffffffffffffffffffffffffff1611155b1562000422576037820391506200046f565b60308273ffffffffffffffffffffffffffffffffffffffff161015801562000461575060398273ffffffffffffffffffffffffffffffffffffffff1611155b156200046e576030820391505b5b5b816010840201840193506002810190506200017e565b8395505050505050919050565b828054600181600116156101000203166002900490600052602060002090601f016020900481019282601f10620004d657805160ff191683800117855562000507565b8280016001018555821562000507579182015b8281111562000506578251825591602001919060010190620004e9565b5b5090506200051691906200052e565b5090565b602060405190810160405280600081525090565b6200055391905b808211156200054f57600081600090555060010162000535565b5090565b90565b6108c980620005666000396000f300606060405260043610610083576000357c0100000000000000000000000000000000000000000000000000000000900463ffffffff1680633d9b2ae61461008857806344834aca146100dd57806384b09e86146101325780638da5cb5b14610187578063cc773044146101dc578063f4f3c8a41461026a578063fa0c1513146102f8575b600080fd5b341561009357600080fd5b61009b61034d565b604051808273ffffffffffffffffffffffffffffffffffffffff1673ffffffffffffffffffffffffffffffffffffffff16815260200191505060405180910390f35b34156100e857600080fd5b6100f0610373565b604051808273ffffffffffffffffffffffffffffffffffffffff1673ffffffffffffffffffffffffffffffffffffffff16815260200191505060405180910390f35b341561013d57600080fd5b610145610399565b604051808273ffffffffffffffffffffffffffffffffffffffff1673ffffffffffffffffffffffffffffffffffffffff16815260200191505060405180910390f35b341561019257600080fd5b61019a6103c3565b604051808273ffffffffffffffffffffffffffffffffffffffff1673ffffffffffffffffffffffffffffffffffffffff16815260200191505060405180910390f35b34156101e757600080fd5b6101ef6103e8565b6040518080602001828103825283818151815260200191508051906020019080838360005b8381101561022f578082015181840152602081019050610214565b50505050905090810190601f16801561025c5780820380516001836020036101000a031916815260200191505b509250505060405180910390f35b341561027557600080fd5b61027d610490565b6040518080602001828103825283818151815260200191508051906020019080838360005b838110156102bd5780820151818401526020810190506102a2565b50505050905090810190601f1680156102ea5780820380516001836020036101000a031916815260200191505b509250505060405180910390f35b341561030357600080fd5b61030b61052e565b604051808273ffffffffffffffffffffffffffffffffffffffff1673ffffffffffffffffffffffffffffffffffffffff16815260200191505060405180910390f35b600160009054906101000a900473ffffffffffffffffffffffffffffffffffffffff1681565b600260009054906101000a900473ffffffffffffffffffffffffffffffffffffffff1681565b6000600160009054906101000a900473ffffffffffffffffffffffffffffffffffffffff16905090565b6000809054906101000a900473ffffffffffffffffffffffffffffffffffffffff1681565b6103f0610558565b60038054600181600116156101000203166002900480601f0160208091040260200160405190810160405280929190818152602001828054600181600116156101000203166002900480156104865780601f1061045b57610100808354040283529160200191610486565b820191906000526020600020905b81548152906001019060200180831161046957829003601f168201915b5050505050905090565b60038054600181600116156101000203166002900480601f0160208091040260200160405190810160405280929190818152602001828054600181600116156101000203166002900480156105265780601f106104fb57610100808354040283529160200191610526565b820191906000526020600020905b81548152906001019060200180831161050957829003601f168201915b505050505081565b6000600260009054906101000a900473ffffffffffffffffffffffffffffffffffffffff16905090565b602060405190810160405280600081525090565b6000610576610889565b60008060008086945060009350600290505b602a81101561087c576101008402935084818151811015156105a657fe5b9060200101517f010000000000000000000000000000000000000000000000000000000000000090047f0100000000000000000000000000000000000000000000000000000000000000027f010000000000000000000000000000000000000000000000000000000000000090049250846001820181518110151561062757fe5b9060200101517f010000000000000000000000000000000000000000000000000000000000000090047f0100000000000000000000000000000000000000000000000000000000000000027f01000000000000000000000000000000000000000000000000000000000000009004915060618373ffffffffffffffffffffffffffffffffffffffff16101580156106d5575060668373ffffffffffffffffffffffffffffffffffffffff1611155b156106e55760578303925061077f565b60418373ffffffffffffffffffffffffffffffffffffffff1610158015610723575060468373ffffffffffffffffffffffffffffffffffffffff1611155b156107335760378303925061077e565b60308373ffffffffffffffffffffffffffffffffffffffff1610158015610771575060398373ffffffffffffffffffffffffffffffffffffffff1611155b1561077d576030830392505b5b5b60618273ffffffffffffffffffffffffffffffffffffffff16101580156107bd575060668273ffffffffffffffffffffffffffffffffffffffff1611155b156107cd57605782039150610867565b60418273ffffffffffffffffffffffffffffffffffffffff161015801561080b575060468273ffffffffffffffffffffffffffffffffffffffff1611155b1561081b57603782039150610866565b60308273ffffffffffffffffffffffffffffffffffffffff1610158015610859575060398273ffffffffffffffffffffffffffffffffffffffff1611155b15610865576030820391505b5b5b81601084020184019350600281019050610588565b8395505050505050919050565b6020604051908101604052806000815250905600a165627a7a723058200884d7c142036978a5a25b5cb58405a460ae64525f1b2d5d70c1b4657e40ce6e0029",
  "source": "pragma solidity ^0.4.17;\n\ncontract SmartContract {\n  address public owner;\n\n  address public sellerAddress;\n  address public buyerAddress;\n\n  string public comment;\n\n  function SmartContract(\n    string _sellerAddress,\n    string _buyerAddress,\n    string _comment\n  ) public\n  {\n    owner = msg.sender;\n\n    sellerAddress = parseAddr(_sellerAddress);\n    buyerAddress = parseAddr(_buyerAddress);\n\n    comment = _comment;\n  }\n\n  function getSellerAddress() public constant returns (address) {\n    return sellerAddress;\n  }\n\n  function getBuyerAddress() public constant returns (address) {\n    return buyerAddress;\n  }\n\n  function getComment() public constant returns (string) {\n    return comment;\n  }\n\n  function parseAddr(string _a) pure internal returns (address) {\n    bytes memory tmp = bytes(_a);\n    uint160 iaddr = 0;\n    uint160 b1;\n    uint160 b2;\n\n    for (uint i = 2; i < 2 + 2 * 20; i += 2) {\n      iaddr *= 256;\n\n      b1 = uint160(tmp[i]);\n      b2 = uint160(tmp[i + 1]);\n\n      if (b1 >= 97 && b1 <= 102) {\n        b1 -= 87;\n      } else if (b1 >= 65 && b1 <= 70) {\n        b1 -= 55;\n      } else if (b1 >= 48 && b1 <= 57) {\n        b1 -= 48;\n      }\n\n      if (b2 >= 97 && b2 <= 102) {\n        b2 -= 87;\n      } else if (b2 >= 65 && b2 <= 70) {\n        b2 -= 55;\n      } else if (b2 >= 48 && b2 <= 57) {\n        b2 -= 48;\n      }\n\n      iaddr += b1 * 16 + b2;\n    }\n\n    return address(iaddr);\n  }\n}\n",
  "sourcePath": "/Users/ihordotsenko/Documents/accept-co-uk/contracts/SmartContract.sol",
  "compiler": {
    "name": "solc",
    "version": "0.4.18+commit.9cf6e910.Emscripten.clang"
  },
  "schemaVersion": "1.0.1",
  "updatedAt": "2017-11-08T20:09:45.646Z"
}